:020000040800F2
:1000000000000A20CD240008212300082D23000829
:100010004123000845230008492300081D25000846
:10002000000000000000000000000000518B0208EA
:100030004D23000800000000F18A02085152020816
:100040001D2500081D250008512300081D25000856
:100050001D2500081D2500081D2500081D25000878
:100060001D2500081D2500081D2500088123000806
:10007000151D04081D250008991C04081D250008ED
:100080001D250008A11C0408551D0408A91C04080E
:100090001D2500081D2500081D250008951D0408C4
:1000A0001D2500081D250008B51C0408151F04089F
:1000B000B91E0408891E04081D2500081D25000816
:1000C000351F04081D2500081D2500085D230008B4
:1000D0001D2500081D2500081D2500081D250008F8
:1000E0001D2500081D250008552104081D250008B0
:1000F000F5210408B91D0408E17403081D25000852
:100100008D750308692300081D2500081D250008BA
:100110001D2500081D2500081D2500081D250008B7
:100120001D250008AD1E0408D11D04081D2500086A
:100130001D250008851F04081D2500081D25000831
:100140001D2500081D2500081D2500081D25000887
:100150001D2500081D2500081D2500081D25000877
:10016000C51D04081D250008A11E04081D25000842
:100170001D2500081D2500081D2500087523000801
:100180001D2500081D2500081D2500081D25000847
:100190001D2500081D2500081D2500081D25000837
:1001A0001D2500081D2500081D2500081D25000827
:1001B0001D2500081D2500081D2500081D25000817
:1001C0001D2500081D2500081D2500081D25000807
:1001D0001D2500081D2500081D2500081D250008F7
:1001E0001D2500081D2500081D2500081D250008E7
:1001F0001D2500081D2500081D2500081D250008D7
:100200001D2500081D2500081D2500081D250008C6
:100210001D2500081D2500081D2500081D250008B6
:100220001D2500081D2500081D2500081D250008A6
:100230001D2500081D2500081D2500081D25000896
:0C0240001D2500081D2500081D250008D4
:1002500081F0004102E000BF83F0004330B54FEA77
:1002600041044FEA430594EA050F08BF90EA020FE4
:100270001FBF54EA000C55EA020C7FEA645C7FEA77
:10028000655C00F0E2804FEA5454D4EB5555B8BF9A
:100290006D420CDD2C4480EA020281EA030382EA0B
:1002A000000083EA010180EA020281EA0303362D9D
:1002B00088BF30BD11F0004F4FEA01314FF4801C70
:1002C0004CEA113102D0404261EB410113F0004F82
:1002D0004FEA03334CEA133302D0524263EB430339
:1002E00094EA050F00F0A780A4F10104D5F1200ED7
:1002F0000DDB02FA0EFC22FA05F2801841F1000132
:1003000003FA0EF2801843FA05F359410EE0A5F105
:1003100020050EF1200E012A03FA0EFC28BF4CF036
:10032000020C43FA05F3C01851EBE37101F00045EC
:1003300007D54FF0000EDCF1000C7EEB00006EEBF9
:100340000101B1F5801F1BD3B1F5001F0CD3490883
:100350005FEA30004FEA3C0C04F101044FEA4452DA
:1003600012F5800F80F09A80BCF1004F08BF5FEA61
:10037000500C50F1000041EB045141EA050130BD41
:100380005FEA4C0C404141EB0101013C28BFB1F553
:10039000801FE9D291F0000F04BF01460020B1FA9E
:1003A00081F308BF2033A3F10B03B3F120020CDA71
:1003B0000C3208DD02F1140CC2F10C0201FA0CF04F
:1003C00021FA02F10CE002F11402D8BFC2F1200CB4
:1003D00001FA02F120FA0CFCDCBF41EA0C0190406A
:1003E000E41AA2BF01EB0451294330BD6FEA0404B3
:1003F0001F3C1CDA0C340EDC04F11404C4F120029E
:1004000020FA04F001FA02F340EA030021FA04F3AF
:1004100045EA030130BDC4F10C04C4F1200220FA06
:1004200002F001FA04F340EA0300294630BD21FA44
:1004300004F0294630BD94F0000F83F4801306BF0A
:1004400081F480110134013D4EE77FEA645C18BFFE
:100450007FEA655C29D094EA050F08BF90EA020F95
:1004600005D054EA000C04BF1946104630BD91EA8D
:10047000030F1EBF0021002030BD5FEA545C05D190
:100480004000494128BF41F0004130BD14F58004CF
:100490003CBF01F5801130BD01F0004545F0FE4143
:1004A00041F470014FF0000030BD7FEA645C1ABF78
:1004B000194610467FEA655C1CBF0B46024650EAAF
:1004C000013406BF52EA033591EA030F41F40021DB
:1004D00030BD00BF90F0000F04BF0021704730B561
:1004E0004FF4806404F132044FF000054FF0000136
:1004F00050E700BF90F0000F04BF0021704730B5F7
:100500004FF4806404F1320410F0004548BF4042CB
:100510004FF000013EE700BF42004FEAE2014FEA20
:1005200031014FEA02701FBF12F07F4393F07F4FFB
:1005300081F06051704732F07F4208BF704793F0FE
:100540007F4F04BF41F40021704730B54FF4607411
:1005500001F0004521F000411CE700BF50EA010214
:1005600008BF704730B54FF000050AE050EA0102BD
:1005700008BF704730B511F0004502D5404261EB2D
:1005800041014FF4806404F132045FEA915C3FF46E
:10059000D8AE4FF003025FEADC0C18BF03325FEA0B
:1005A000DC0C18BF033202EBDC02C2F1200300FABC
:1005B00003FC20FA02F001FA03FE40EA0E0021FAE1
:1005C00002F11444BDE600BF70B54FF0FF0C4CF4CF
:1005D000E06C1CEA11541DBF1CEA135594EA0C0F81
:1005E00095EA0C0F00F0DEF82C4481EA030621EABC
:1005F0004C5123EA4C5350EA013518BF52EA0335F7
:1006000041F4801143F4801338D0A0FB02CE4FF0A8
:100610000005E1FB02E506F00042E0FB03E54FF0D8
:100620000006E1FB03569CF0000F18BF4EF0010ED0
:10063000A4F1FF04B6F5007F64F5407404D25FEACC
:100640004E0E6D4146EB060642EAC62141EA55517F
:100650004FEAC52040EA5E504FEACE2EB4F1FD0CC1
:1006600088BFBCF5E06F1ED8BEF1004F08BF5FEA3F
:10067000500E50F1000041EB045170BD06F00046F1
:1006800046EA010140EA020081EA0301B4EB5C049E
:10069000C2BFD4EB0C0541EA045170BD41F4801196
:1006A0004FF0000E013C00F3AB8014F1360FDEBFBB
:1006B000002001F0004170BDC4F10004203C35DA97
:1006C0000C341BDC04F11404C4F1200500FA05F31A
:1006D00020FA04F001FA05F240EA020001F00042BB
:1006E00021F0004110EBD37021FA04F642EB060131
:1006F0005EEA430E08BF20EAD37070BDC4F10C045B
:10070000C4F1200500FA04F320FA05F001FA04F21E
:1007100040EA020001F0004110EBD37041F100010A
:100720005EEA430E08BF20EAD37070BDC4F1200515
:1007300000FA05F24EEA020E20FA04F301FA05F27D
:1007400043EA020321FA04F001F0004121FA04F225
:1007500020EA020000EBD3705EEA430E08BF20EAF5
:10076000D37070BD94F0000F0FD101F0004640002F
:1007700041EB010111F4801F08BF013CF7D041EAB1
:10078000060195F0000F18BF704703F000465200B5
:1007900043EB030313F4801F08BF013DF7D043EA86
:1007A0000603704794EA0C0F0CEA135518BF95EA3C
:1007B0000C0F0CD050EA410618BF52EA4306D1D1C3
:1007C00081EA030101F000414FF0000070BD50EAE2
:1007D000410606BF1046194652EA430619D094EA6C
:1007E0000C0F02D150EA013613D195EA0C0F05D156
:1007F00052EA03361CBF104619460AD181EA0301AA
:1008000001F0004141F0FE4141F470014FF0000061
:1008100070BD41F0FE4141F4780170BD70B54FF0FC
:10082000FF0C4CF4E06C1CEA11541DBF1CEA13557C
:1008300094EA0C0F95EA0C0F00F0A7F8A4EB05045E
:1008400081EA030E52EA03354FEA013100F0888055
:100850004FEA03334FF0805545EA131343EA12631E
:100860004FEA022245EA111545EA10654FEA0026D3
:100870000EF000419D4208BF964244F1FD0404F58C
:10088000407402D25B084FEA3202B61A65EB0305E8
:100890005B084FEA32024FF480104FF4002CB6EBA5
:1008A000020E75EB030E22BFB61A754640EA0C0025
:1008B0005B084FEA3202B6EB020E75EB030E22BF65
:1008C000B61A754640EA5C005B084FEA3202B6EBA6
:1008D000020E75EB030E22BFB61A754640EA9C0065
:1008E0005B084FEA3202B6EB020E75EB030E22BF35
:1008F000B61A754640EADC0055EA060E18D04FEAF3
:10090000051545EA16754FEA06164FEAC30343EA92
:1009100052734FEAC2025FEA1C1CC0D111F4801F5F
:100920000BD141EA00014FF000004FF0004CB6E758
:1009300011F4801F04BF01430020B4F1FD0C88BFF7
:10094000BCF5E06F3FF6AFAEB5EB030C04BFB6EB02
:10095000020C5FEA500C50F1000041EB045170BDF5
:100960000EF0004E4EEA113114EB5C04C2BFD4EB22
:100970000C0541EA045170BD41F480114FF0000EA6
:10098000013C90E645EA060E8DE60CEA135594EA22
:100990000C0F08BF95EA0C0F3FF43BAF94EA0C0F25
:1009A0000AD150EA01347FF434AF95EA0C0F7FF49A
:1009B00025AF104619462CE795EA0C0F06D152EAEE
:1009C00003353FF4FDAE1046194622E750EA4106D2
:1009D00018BF52EA43067FF4C5AE50EA41047FF4E3
:1009E0000DAF52EA43057FF4EBAE12E74FF0FF3C48
:1009F00006E000BF4FF0010C02E000BF4FF0010C19
:100A00004DF804CD4FEA410C7FEA6C5C4FEA430C91
:100A100018BF7FEA6C5C1BD001B050EA410C0CBFE0
:100A200052EA430C91EA030F02BF90EA020F002042
:100A3000704710F1000F91EA030F58BF994208BFA9
:100A400090422CBFD8176FEAE37040F00100704766
:100A50004FEA410C7FEA6C5C02D150EA013C07D1BD
:100A60004FEA430C7FEA6C5CD6D152EA033CD3D008
:100A70005DF8040B704700BF8446104662468C4602
:100A80001946634600E000BF01B5FFF7B7FF002835
:100A900048BF10F1000F01BD4DF808EDFFF7F4FF5E
:100AA0000CBF012000205DF808FB00BF4DF808EDE9
:100AB000FFF7EAFF34BF012000205DF808FB00BF0C
:100AC0004DF808EDFFF7E0FF94BF012000205DF82E
:100AD00008FB00BF4DF808EDFFF7CEFF94BF0120E3
:100AE00000205DF808FB00BF4DF808EDFFF7C4FFDC
:100AF00034BF012000205DF808FB00BF4FEA410C25
:100B00007FEA6C5C02D150EA013C0AD14FEA430C07
:100B10007FEA6C5C02D152EA033C02D14FF0000044
:100B200070474FF0010070474FEA410212F5001282
:100B300015D211D56FF47873B3EB625212D94FEA24
:100B4000C12343F0004343EA505311F0004F23FA0E
:100B500002F018BF404270474FF00000704750EA63
:100B6000013005D111F0004008BF6FF00040704720
:100B70004FF00000704700BF4A0011D212F500127A
:100B800011D20DD56FF47873B3EB62520ED44FEAE5
:100B9000C12343F0004343EA505323FA02F0704765
:100BA0004FF00000704750EA013002D14FF0FF30A3
:100BB00070474FF0000070474FEA4102B2F1E04346
:100BC00024BFB3F5001CDCF1FE5C0DD901F0004C34
:100BD0004FEAC0024CEA5070B2F1004F40EB830084
:100BE00008BF20F00100704711F0804F21D113F1B0
:100BF0003872BCBF01F00040704741F480114FEAE9
:100C00005252C2F11802C2F1200C10FA0CF320FA71
:100C100002F018BF40F001004FEAC1234FEAD3238E
:100C200003FA0CFC40EA0C0023FA02F34FEA4303F8
:100C3000CCE77FEA625307D150EA01331EBF4FF081
:100C4000FE4040F44000704701F0004040F0FE409C
:100C500040F40000704700BF53B94AB9002908BFEB
:100C600000281CBF4FF0FF314FF0FF3000F00CB8F0
:100C7000ADF1080C6DE904CE4EF03EFCDDF804E069
:100C8000DDE9022304B07047704700BF10F8012B64
:100C900011F8013B012A28BF9A42F7D0D01A7047B9
:100CA000034613F8012B002AFBD1181A01387047AC
:100CB0000348044B834202D0034B03B118477047EB
:100CC000B41A0020B41A002000000000064B0749A7
:100CD000C91A891048BF0131491003D0044B0BB128
:100CE00001481847704700BFB41A0020B41A00200A
:100CF0000000000010B5064C237843B9FFF7D8FF79
:100D0000044B13B10448AFF300800123237010BDDE
:100D1000B81A002000000000AC41050808B5054BDA
:100D20001BB105490548AFF30080BDE80840FFF757
:100D3000CDBF00BF00000000BC1A0020AC41050878
:100D4000002310B504468360818119464366C28141
:100D500008228361C0E90033C0E904335C3000F04D
:100D6000F9F80D4B246263620C4BA3620C4BE362F7
:100D70000C4B23630C4B9C4206D003F16802944257
:100D800002D0D0339C4205D104F15800BDE8104098
:100D900000F0B0B910BD00BFC90E0008EF0E00088A
:100DA000270F00084D0F0008D41A0020024A0349FB
:100DB000034800F06BB800BF00000020ED130008EE
:100DC0001000002041680C4B994210B5044601D038
:100DD00000F00CFBA168094B994202D0204600F0BC
:100DE00005FBE168064B994204D02046BDE810405F
:100DF00000F0FCBA10BD00BFD41A00203C1B00203C
:100E0000A41B00200C4B04210C4A0D4810B51A609D
:100E10000022FFF795FF0A4B012209211C4603F12E
:100E20006800FFF78DFF022204F1D0001221BDE817
:100E30001040FFF785BF00BF0C1C0020AD0D00085F
:100E4000D41A0020014800F056B900BF151C00203C
:100E5000014800F051B900BF151C002010B5044630
:100E6000FFF7F0FF236A1BB1BDE81040FFF7F0BFAA
:100E7000044B2362044B1B68002BF5D1FFF7C2FF24
:100E8000F2E700BFC50D00080C1C00202DE9F84357
:100E90000746884614460026D4E90195B9F10109B0
:100EA00005D52468002CF7D13046BDE8F883AB891E
:100EB000012B07D9B5F90E30013303D02946384646
:100EC000C04706436835E9E710B50C46B1F90E1086
:100ED00000F0C8F80028ABBF636DA3891B1823F48A
:100EE0008053ACBF6365A38110BD002070472DE91E
:100EF000F0411F468B8905460C46DB05164605D595
:100F000002230022B1F90E1000F09AF8A3893246AC
:100F1000B4F90E10284623F48053A3813B46BDE864
:100F2000F04100F0B1B810B50C46B1F90E1000F068
:100F300087F8421CB4F90C3015BF606523F4805368
:100F400043F48053A38118BFA38110BDB1F90E10E3
:100F500000F008B802440346934200D1704703F8FA
:100F6000011BF9E738B50023054D044608462B6000
:100F700001F02CFA431C02D12B6803B1236038BD69
:100F8000101C00202D4B1B68834270B5044653D0C3
:100F9000C3691BB3DB6863B10025E369DB6859599A
:100FA000B1B90435802DF8D1E3692046D96800F045
:100FB000A5F8E369196811B1204600F09FF8E369CC
:100FC0009D685DB1294620462D6800F097F8F8E746
:100FD0000E68204600F092F83146E1E7616911B1F0
:100FE000204600F08BF8E16911B1204600F086F848
:100FF000216B11B1204600F081F8616B11B12046E0
:1010000000F07CF8A16B11B1204600F077F8A16CDC
:1010100011B1204600F072F8616C11B1204600F069
:101020006DF8E16A11B1204600F068F8236A1BB13F
:101030002046BDE87040184770BD00BF0C0000207E
:1010400038B50446064D0846114600222A601A4665
:1010500001F0C8F9431C02D12B6803B1236038BDED
:10106000101C002038B50446064D084611460022E3
:101070002A601A4601F09CF9431C02D12B6803B187
:10108000236038BD101C002038B50446064D0846C4
:10109000114600222A601A4641F0E2FE431C02D1AA
:1010A0002B6803B1236038BD101C002070B50D4BB8
:1010B00000260D4D5B1B9C10A64209D10B4D53F031
:1010C00075F80B4B00265B1B9C10A64205D170BD2A
:1010D00055F8043B01369847EEE755F8043B0136D6
:1010E0009847F2E7680707086807070868070708CE
:1010F0006C070708704770477047000038B5054611
:10110000002941D051F8043C0C1F002BB8BFE41853
:1011100000F0E0F81D4A136833B963601460284694
:10112000BDE8384000F0DCB8A34208D92068211897
:101130008B4201BF19685B6809182160EDE71A4608
:101140005B680BB1A342FAD911685018A0420BD1C9
:1011500020680144501811608342E0D118685B6830
:10116000084453601060DAE702D90C232B60D6E7FD
:10117000206821188B4202BF19685B6809186360F8
:1011800008BF21605460CAE738BD00BF1C1C0020A6
:1011900070B50F4E0C460546316811B900F062F982
:1011A00030602146284600F05DF9431C03D14FF022
:1011B000FF34204670BDC41C24F00304A042F8D0C4
:1011C000211A284600F04EF90130F2D1EFE700BFB6
:1011D000181C00202DE9F843CD1C064625F0030518
:1011E00008350C2D38BF0C25002D01DBA94204D990
:1011F0000C2333600020BDE8F883DFF8D48000F0D2
:1012000069F8D8F800301C4644BB29463046FFF741
:10121000BFFF431C044658D1D8F800402746002F92
:1012200043D1002C4BD023683946304604EB0309E8
:1012300000F018F9814542D1216830466D1A2946DF
:10124000FFF7A6FF01303AD023682B442360D8F87B
:1012500000305A6862BBC8F800700FE02268521B69
:1012600020D40B2A17D96119A342256018BF5960F1
:10127000636808BFC8F8001062514B60304600F048
:101280002FF804F10B00231D20F00700C21A1CBF29
:101290001B1AA350AFE76268A3420CBFC8F8002036
:1012A0005A60EBE723466468AEE73C467F68B6E7E2
:1012B0001A465B68A342FBD100235360DEE70C2390
:1012C0003046336000F00CF894E70560D6E700BFC5
:1012D0001C1C00200148FFF70EBF00BF141C00209B
:1012E0000148FFF709BF00BF141C0020B1F90C2012
:1012F0002DE9F041160705460C4651D44B68002BEA
:1013000002DC0B6C002B49DDE66A002E46D0002380
:1013100012F480522F682B6031D0626DA389590777
:1013200005D56368D21A636B0BB1236CD21A002304
:10133000E66A216A2846B047421CB4F90C3006D14F
:1013400029681D2945D8284ACA40D60741D5002218
:10135000D90462602269226004D5421C01D12B6845
:1013600003B96065616B2F60C1B104F14403994218
:1013700002D02846FFF7C2FE002363630EE001237C
:10138000216A2846B0470246501CC7D12B68002B63
:10139000C4D01D2B01D0162B19D12F6000201DE0C9
:1013A0000F69002FFAD093070E680F600CBF4B69CE
:1013B0000023A6EB07088B60B8F1000FEEDD434673
:1013C0003A46216A2846A66AB047002808DCB4F9E4
:1013D0000C3043F040034FF0FF30A381BDE8F081B3
:1013E0000744A8EB0008E7E70100402038B50B6987
:1013F00005460C4613B90025284638BD18B1036AC6
:101400000BB9FFF72BFDB4F90C30002BF3D0626E53
:10141000D00704D4990502D4A06DFFF76CFE2846CE
:101420002146FFF763FF636E0546DA07E4D4A3891C
:101430009B05E1D4A06DFFF75FFEDDE7014620B913
:10144000044A05490548FFF721BD054B1868FFF719
:10145000CDBF00BF00000020ED13000810000020E9
:101460000C00002038B50023054D044608462B60CB
:1014700000F0BAFF431C02D12B6803B1236038BDD2
:10148000101C002008B538F035FE40F2DC5038F072
:10149000C1FB802038F06EFC4FF4807038F094FC73
:1014A00041F2700038F0BCFC4FF4806038F038FC3A
:1014B00041F2C63038F0DEFC4FF4966038F002FDA1
:1014C00038F08CFBBDE80840F0224FF4486140F64C
:1014D000340039F005BB00BF844610B4054C0FCC76
:1014E000ACE80F0094E80F005DF8044B8CE80F00A7
:1014F00001207047201C002010B58AB0282200214E
:101500006846FFF727FD684638F062FF38F044FD73
:10151000194C607038F02EFD207038F019FDBDF8C0
:1015200000300246DDE9020107EE903AF8EE677AF4
:10153000BDF90230C4ED037AA2706361FFF71CFBB2
:101540009DF81A300799BDF810202376BDF81230A7
:10155000C4F81A10A2722374E07238F087FB38F0D6
:10156000A3FB38F061FD84ED010A38F09BFD20817A
:1015700038F0B8FB0AB010BD201C002038B5084D6B
:10158000084B2C680A46002C08BF1C462368596883
:101590004FF082FB60682860003818BF012038BD1A
:1015A000441C00206000002038B5A8B10546082082
:1015B00027F0E0FA044660B127F0AAF90021084BB1
:1015C000C4E900511A681C60546027F0AFF901208B
:1015D00038BD27F077FAFEE727F074FAFEE700BF80
:1015E0005C0000202DE9F047344E002334680746A4
:1015F000884691464CB124683A4649464046A4681C
:10160000A04700B93060BDE8F0872D4C3460D4F8B5
:1016100000A0DAF800502846FFF742FB29460546AD
:1016200038462A464FF026FB18B97B5D13F0DF03DE
:101630000BD064683460002CE9D14A464046214909
:101640004FF02AFB2046BDE8F087397899B31A4657
:1016500038461D4603E0002210F8011F89B12029F9
:10166000EBB2F8D1002AF7D141785D1CEBB26DB234
:10167000F1B1202913D010F8021F11B12029EBD1AC
:10168000F2E7AAB99AF91020002AB4DB9342B2D04B
:10169000DAF80C3098470028B5D13060B3E710F87D
:1016A000022F2AB1A2F12002B2FA82F25209D3E744
:1016B000013BDBB2E6E70B46E4E700BF401C00203D
:1016C0006000002044420508002300B584469E4681
:1016D00013608E451DD09CF8000018B917E01CF867
:1016E000010FA0B12028FAD11CF8010F2028FBD04F
:1016F00068B10EF1010E7145EBD160460023013354
:10170000136010F8011F09B12029F8D160465DF877
:1017100004FB00205DF804FB704700BF10B54AF0E1
:1017200023FF0021074A084823F016FE0446074B12
:101730000021074A07481C6023F00EFE064B186084
:1017400010BD00BFB8A6050825CF0408481C00201E
:1017500008E6060879170008187E02200020704766
:1017600008B50A460021FFF7F5FB02484FF04CF898
:10177000002008BDD842050880B53C4884B0FFF77A
:1017800013FF3B48FFF710FF00243A4F3A4D3B4E02
:10179000DFF8F490DFF8F880DFF8F8A000224FF0CF
:1017A000FF31104602AB0091114626F06FFB029B01
:1017B000394633483B704FF027F82B689868FFF79D
:1017C0003DFE97F900300D2B0CD00A2B0AD0082BC8
:1017D00031D07F2B2FD03F2CE0D8621C09F8043089
:1017E000D4B2DBE727484FF077F82B689868FFF70B
:1017F00025FEC82221492448FFF7F4FE1F4904466C
:101800001F484FF001F82B689868FFF717FE002378
:101810003370002CEDD1D8F8001019484EF0F4FFC9
:101820002B689868FFF70AFE402221461648FFF70A
:1018300091FB0024B2E76CB10023013CE4B209F84B
:10184000043012490E484EF0DFFF2B689868FFF70E
:10185000F5FDA3E703A90A48CDF80CA04EF0D4FF8C
:101860002B689868FFF7EAFDE3E700BFDCA60508F0
:10187000F0A605084C1C00200C000020901C002045
:10188000B8A005084CA60508501C002068000020E0
:101890006C0000201B5B4300002330B59DB0CDE9F8
:1018A0000B33CDE90D33CDE90F33CDE90333CDE96A
:1018B0000533254A0A9302930793136923F03003F3
:1018C0001361136903F030030193019B53691B07F4
:1018D000FCD50223002229244FF48035129314935F
:1018E00018930C23CDE908450421CDE91A22199358
:1018F0004FF4805218234FF08065032408A81593F5
:10190000CDE916110E951192139408F0E3FE0346EB
:1019100008B172B6FEE71F250022CDE9043300238B
:10192000214602A8CDE906230394029509F02EFA78
:1019300008B172B6FEE7054A136823F0300343F09E
:10194000100313601DB030BD0008024400200240A7
:1019500080B58EB004F0A4FDFFF79EFF04F0A8FE52
:101960004FF4806306A80125ADF8183004F0DEFEC0
:101970004FF440730024B349B34A07A8CDE90812D5
:101980000A93ADF81C5004F0A7FE062004F07EFE7A
:10199000CDE90744CDE90944AC4B0B94D3F88C2036
:1019A000AD2142F01002C3F88C20D3F88C20A84857
:1019B00002F010020192019AD3F88C20A54E42F059
:1019C0000402C3F88C20D3F88C20A34F02F0040249
:1019D0000292029AD3F88C204FF4807842F0800271
:1019E000C3F88C20D3F88C2002F080020392039A73
:1019F000D3F88C202A43C3F88C20D3F88C202A40BB
:101A00000492049AD3F88C2042F00202C3F88C208E
:101A1000D3F88C2002F002020592059AD3F88C20AC
:101A200042F00802C3F88C20D3F88C30224603F031
:101A300008030693069B06F061FC22464FF455719D
:101A4000864806F05BFC224640F22361844806F09B
:101A500055FC224648F28001824806F04FFC22469F
:101A600047F66971804806F049FC47F674737D4873
:101A700007A9CDE90734099406F008FB0823794843
:101A800007A9CDE90736099406F000FB42F21203DC
:101A90006F4807A9CDE90734099406F0F7FAAD239A
:101AA0006B4807A9CDE90735CDE9094406F0EEFA00
:101AB0004FF41573694807A9CDE90735CDE9094405
:101AC00006F0E4FA48F20843644807A9CDE9073470
:101AD000099406F0DBFA40F22363614807A9CDE9D7
:101AE0000735CDE9094406F0D1FA48F280035D4894
:101AF00007A9CDE90735CDE9094406F0C7FA4FF447
:101B00008053574807A9CDE90737099406F0BEFA74
:101B100047F66973544807A9CDE90735CDE909446B
:101B200006F0B4FA48F202034F4807A9CDE907349A
:101B3000099406F0ABFA4023454807A9CDE90736DA
:101B4000099406F0A3FA0223444807A90A93CDE9B1
:101B50000785099406F09AFA9023434807A9CDE92E
:101B60000734099506F092FA3D4807A9CDE90786A2
:101B7000099506F08BFA3B4807A9CDE90757099468
:101B800006F084FA22460521132004F0D3FC13202A
:101B900004F00CFD224605210E2004F0CBFC0E20A3
:101BA00004F004FD22460521112004F0C3FC11209D
:101BB00004F0FCFC224605210B2004F0BBFC0B20AA
:101BC00004F0F4FC29492A4B03220B6040F6FF7312
:101BD000C1E903344FF47A6308464A608B6007F02A
:101BE00075FC08B172B6FEE7224B234A07241A603F
:101BF0004FF400324FF480074FF080684FF080467A
:101C0000C3E902244FF08052C3E90800C3E90E0083
:101C1000C3E91200C3E91400C3E916001861586152
:101C2000986218661846C3E906825F60DC625E63EC
:101C30000DF0E4FD08B172B6FEE707F027FCE8B14D
:101C400072B6FEE700F8FF080CF8FF08000C02442B
:101C500000080242000021100000111000000242A2
:101C60000004024200100242000C0242241F002025
:101C700000300040E81D00200030014007F01AFC51
:101C8000034610BB4FF080714FF000524548C0E949
:101C90000234C0E90833C0E90D33C0E91233C0E9AA
:101CA0001433C0E9163303618362C36303663E4B9A
:101CB00047600360C0F81880C4624161C2610DF0E2
:101CC0009DFD034618B172B6FEE772B6FEE7374CCB
:101CD000374AC4E90433C4E90633A3602362354BB1
:101CE0002046C4E90023E56006F006FF014608B17E
:101CF00072B6FEE7204607F073FB014608B172B6E4
:101D0000FEE7204607F096FB034608B172B6FEE7F1
:101D1000294C2A4AC4E908332260FF237F22CDE9F7
:101D20000700CDE90900CDE90B00C4E90400C4E9CE
:101D300006060D9060602046C4E902230CF05EFDAB
:101D4000034608B172B6FEE7204607A9CDE90A337B
:101D500007930C930CF058FE08B172B6FEE700230F
:101D60004FF6FF711A4614480CF0C0FD034608B147
:101D700072B6FEE70322124C12492046C4E905332D
:101D80002160A380226204F027FD08B172B6FEE74D
:101D9000204604F05FFD23F065FAFFF7BFFC23F057
:101DA00095FAFEE7581D002000380040381F00203B
:101DB0000054004087277000F41E00200078004483
:101DC0008C1F002000300240104B02689A4208D05D
:101DD0000F4B984203D00F4B984200D0704740F011
:101DE000EDB800B583B0019004F080FB0198084B7A
:101DF000984205D0074B984202D003B05DF804FB2F
:101E000003B05DF804EB40F0D9B800BF001000400B
:101E1000DC9202202893022072B6FEE710B50C4631
:101E200082B00346034A03200349009441F0B6F808
:101E300002B010BD484305086C43050808B50022F0
:101E40000F216FF0010004F075FB23200022052113
:101E500004F070FBBDE80840232004F0A7BB00BFDE
:101E60000A4B02689A4200D07047094B82B0D3F8FF
:101E7000882042F48052C3F88820D3F8883003F4D5
:101E800080530193019B02B0704700BF00300240B5
:101E9000000C0244064B02689A4200D07047054A83
:101EA000D2F8883023F48053C2F88830704700BFDE
:101EB00000300240000C024410B500210446CAB0B4
:101EC0004FF4847208A8CDE90211CDE904110691FE
:101ED000FFF740F8204B22689A4201D04AB010BD6B
:101EE0004FF40052002308A8CDE9082309F0E6FAD0
:101EF00040BB1A4C0421D4F88C309FED157B43F085
:101F00000203C4F88C30D4F88C30002203F00203B2
:101F10000093009B01230691114802A9CDE90423F7
:101F20008DED027B06F0B2F8D4F89C3043F4001338
:101F3000C4F89C30D4F89C3003F400130193019B47
:101F40004AB010BDFFF768FFD3E700BFAFF30080D2
:101F5000C00000001200000000540040000C0244C9
:101F6000000402420000000010B50446C4B04FF463
:101F70008472002102A8FEF7EDFF1B4B22689A42F3
:101F800001D044B010BD9FED167B4FF4007302A842
:101F90008DED027B409309F091FAE0B9134B0022DA
:101FA000D3F8F01041F40041C3F8F010D3F8A800C2
:101FB000052140F40010C3F8A800D3F8A83002208F
:101FC00003F400130193019B04F0B4FA022004F01F
:101FD000EDFA44B010BDFFF71FFFDFE7AFF300805D
:101FE000000000020000000000780044000C0244E1
:101FF00008B502680C4B9A4200D008BD0B4A4FF45A
:10200000F851D2F894300A4823F40063C2F89430AF
:1020100006F002F90748042106F0FEF8BDE8084082
:102020004F2004F0D1BA00BF00800046000C0244EB
:1020300000080242000C024210B500210446CCB058
:102040004FF484720AA8CDE90411CDE90611089174
:10205000FEF780FF3A4A2368934204D0394A9342FC
:1020600034D04CB010BD4FF0006200230AA8CDE977
:102070000A2309F023FA00285BD1334B0020D3F860
:10208000A420052442F48052C3F8A420D3F8A4204D
:1020900002F480520092009AD3F88C2042F00102A0
:1020A000C3F88C20D3F88C30A02203F001030193F5
:1020B000019900210223CDE90601244804A9CDE9B4
:1020C0000423089405F0E2FF4CB010BD4FF080529D
:1020D00000230AA8CDE90A2309F0F0F960BB1A4BE6
:1020E0000020D3F89C20052442F48042C3F89C20B1
:1020F000D3F89C2002F480420292029AD3F88C20FA
:1021000042F00202C3F88C20D3F88C304FF46042C6
:1021100003F002030393039900210223CDE9060192
:102120000B4804A9CDE90423089405F0AFFF4CB097
:1021300010BDFFF771FEA0E7FFF76EFECFE700BF0F
:102140000030014000380040000C02440000024210
:10215000000402420F4A0368934203D00E4A93429E
:102160000BD070470D4AA021D2F8A4300C4823F4BC
:102170008053C2F8A43006F04FB8084A4FF46041CB
:10218000D2F89C30074823F48043C2F89C3006F014
:1021900043B800BF0030014000380040000C02444A
:1021A0000000024200040242134A036882B09342D4
:1021B00004D0124A934210D002B07047104BD3F8AB
:1021C000A42042F40062C3F8A420D3F8A43003F49E
:1021D00000630093009B02B07047094BD3F89C202A
:1021E00042F00202C3F89C20D3F89C3003F00203B3
:1021F0000193019B02B07047002C01400004004095
:10220000000C0244164A0368934206D0B3F1804F93
:1022100013D0144A934208D07047134AD2F8A4301E
:1022200023F40063C2F8A43070470F4AD2F89C3000
:1022300023F00203C2F89C30704710B504460A4AE6
:102240000A48D2F89C3048F2080123F00103C2F892
:102250009C3005F0E1FF606ABDE8104004F010BD5D
:10226000002C014000040040000C02440000024227
:1022700030B5264B89B0D3F89C20044642F01002BA
:10228000C3F89C20D3F89C30694603F010030193F7
:1022900002A8019B09F01AF8059BE3B908F038FF82
:1022A0000346002263251A495B09A1FB0313194960
:1022B000DB09013B4B60184B0846C1E903528A60B9
:1022C0000B600EF0ABFC054648B1312004F06EF90E
:1022D000284609B030BD08F01BFF4300E1E70D4878
:1022E0000EF05AFE05460028EFD10F2C06D9012525
:1022F000312004F05BF9284609B030BD0246214682
:10230000312004F017F9054B1C60DEE7000C024495
:10231000C55A7C0AB01F0020001000407800002041
:10232000014BD3F80831FEE7002002400023034AA6
:1023300013601368002BFCD0704700BFFC1F002007
:10234000FEE700BFFEE700BFFEE700BF704700BF2B
:1023500001480CF035BB00BFF41E0020014807F017
:1023600003B900BF241F002001480FF051BD00BF7A
:10237000B01F002001480DF0B7B800BF781E002044
:10238000014805F0CDB900BFFC4402200120704790
:1023900008B54EF06BFD162203464FF0FF301A6071
:1023A00008BD00BF08B54EF061FD16230360FEE7CF
:1023B00070B5161E07DD0C468D19AFF3008004F8CA
:1023C000010BA542F9D1304670BD00BF4FF0FF3080
:1023D000704700BF4FF4005300204B60704700BFB0
:1023E00001207047002070470D49034610B50D4A83
:1023F0000D4C0868121B20B10344934207D80B60B0
:1024000010BD0A4C2046034493420C60F7D94EF0AD
:102410002DFD0C2203464FF0FF301A6010BD00BFA7
:102420000020002000000A200004000028B4022040
:10243000F0B4002201274FF000661D491D4CD1F871
:1024400088301D4843F47003C1F888301B4B1C4D85
:102450001F60DA611A621F683C401C609A62DA628F
:102460001A6358639A63D8631A6458649A64186844
:1024700020F4802018601A658E60AB6903F0404339
:10248000B3F1404F01D0F0BC7047EB69DB0703D5D7
:102490000C4A0D4BEA60EB60094BF0BCDA6942F084
:1024A0000202DA61DA6942F00102DA61704700BFC4
:1024B00000ED00E0E3EAE2EA80020101000C0244E0
:1024C000002002403B2A19087F6E5D4C0D4885466E
:1024D000FFF7AEFF0C480D490D4A002302E0D45827
:1024E000C4500433C4188C42F9D30A4A0A4C00235E
:1024F00001E013600432A242FBD3FEF7D7FDFFF7E1
:1025000027FAFEE700000A2000000020B41A00208D
:1025100070070708B81A002028B40220FEE7000060
:1025200070B54A4C63780A3B022B6FD9C22003F086
:102530007DFBD52003F07AFB216979B16378092B03
:102540007DD00D2B0AD040F23B43994288BFA1F2C7
:102550003C41C80880B2202103F03CF8236D03B150
:102560009847236BC3F380025201D806D2B248BF0A
:1025700042F04002990648BF42F08002E021052067
:1025800003F09AFC236B80211A064FF00A003AD51B
:1025900003F030FC236B08211B074FF00C0024D5FF
:1025A00003F0C8FBE3790221012B4FF0120024D085
:1025B00003F0C0FB264E274D27496378A3F10A029A
:1025C000022A04D903F0FB03092B23D00D46606BCC
:1025D000431E033328D9284603F09AFE284603F009
:1025E000D9FEFF2384F83F3070BD03F003FCE3798C
:1025F0000221012B4FF01200DAD103F0FBFB174E42
:10260000174D1849D9E703F095FBC3E7DB2003F02A
:102610000DFB91E7002203210A2003F04DFC606BC3
:102620003546431E0333D6D80F4BA3FB0030000BB7
:1026300000F57A7080B203F025FFE064CBE7C1F3C8
:10264000C721552003F020F988E700BF08200020AB
:10265000785EF0807848F0087840F0007A5EF0808C
:102660007A48F0087A40F0000520544D8142034634
:1026700007D9091A91FBF2F1014488B283420DD0C7
:102680007047A0EB010191FBF2F1A0EB010188B2D0
:10269000F6D0834208BF00F47F40704700F47F40CB
:1026A00000F5807080B2704710B5254C94F83F302B
:1026B000FF2B23D06278012A00D010BD628B1B2A29
:1026C00001D0152AF9D113F00E0F94F83E10F4D072
:1026D0009B0941EA03210129EFD1606A03F078F9EF
:1026E000E26A32B194F83F30FF2B20D0C3F34203AB
:1026F00013805A2328222376628310BD02221E20D3
:1027000004F13E0103F064F86378012BD5D1638BAB
:102710001B2B01D0152BD0D194F83F30FF2BD2D1F9
:10272000BDE8104002221E20064903F051B80222E3
:102730001E20044903F04CF894F83F30E26AD5E7D4
:10274000082000204620002010B582B002F0D0FC06
:10275000044610B1204602B010BD03F07BFE4021BC
:10276000012003F09FFA204626F028FB03220220D6
:10277000114603F0A1FB4FF0FF0C4FF0010E154B7B
:1027800080212C202246C3E90144C3E90344C3E964
:102790001144C3E9144483F83FC0A3F800E083F870
:1027A0006CC01C831C751C64DC649C65A3F84044ED
:1027B00083F85C4083F87D4083F8804003F0E4FCBC
:1027C0000028C7D00DF1060002F064FD204602B0DB
:1027D00010BD00BF0820002010B5A34C84B02378A2
:1027E000002B73D0FF28637808BFA078FF2908BFAB
:1027F000E178073B012BA070E17040D8E27802F14C
:102800001503DBB2012B00F22A81A37803F1140136
:10281000C9B2012900F22381A3F1ED03A2F1EB0279
:10282000B3FA83F3B2FA82F2694652095B0902A84D
:1028300003928DF8083026F0CDFB009B01A81B68A1
:10284000019302F0DFFE082026F0B8FAA378EA2B05
:1028500096BF581C18010001C0B240F4805040F0EF
:10286000010026F0ABFAE378EA2B96BF581C18015A
:102870000001C0B240F4805040F0020044E002F099
:10288000D9FD20BB63780D2B00F2EB8001A252F83A
:1028900023F000BFCD2800081329000813290008E1
:1028A000D3280008D3280008D328000847290008A7
:1028B000FD270008FD270008272A0008EF29000847
:1028C000CD280008B72900087F290008212004B07E
:1028D00010BD082026F072FAA378EA2B96BF581C88
:1028E00018010001C0B240F4007040F0010026F071
:1028F00065FAE378EA2B96BF581C18010001C0B2B4
:1029000040F4007040F0020026F058FA002004B0B5
:1029100010BD082026F052FAA378EA2B96BF581C67
:1029200018010001C0B240F4807040F0010026F0B0
:1029300045FAE378EA2B96BF581C18010001C0B293
:1029400040F48170E0E7082026F038FAA378EA2BFB
:1029500096BF581C18010001C0B240F4806040F0DE
:10296000010026F02BFAE378EA2B96BF581C1801D9
:102970000001C0B240F4806040F00200C4E70920CA
:1029800026F01CFAA378EA2B96BF581C1801000108
:10299000C0B240F4084040F0010026F00FFAE3789E
:1029A000EA2B96BF581C18010001C0B240F4084041
:1029B00040F00200A8E7092026F000FAA378EA2BED
:1029C00096BF581C18010001C0B240F4044040F00A
:1029D000010026F0F3F9E378EA2B96BF581C1801A2
:1029E0000001C0B240F4044040F002008CE709202E
:1029F00026F0E4F9A378EA2B96BF581C18010001D1
:102A0000C0B240F4014040F0010026F0D7F9E3786D
:102A1000EA2B96BF581C18010001C0B240F40140D7
:102A200040F0020070E7082026F0C8F9A378EA2BEE
:102A300096BF581C18010001C0B240F4006040F07D
:102A4000010026F0BBF9E378EA2B96BF581C180169
:102A50000001C0B240F4006040F0020054E70720DB
:102A600035E70F2033E700BF08200020F8B5794F85
:102A70003B789BB1FF290C4612D0FF2A15460FD098
:102A8000431E06460C2B00F2E280DFE803F07E6D69
:102A90005E4F34230B0BC6B5B3A284002120F8BDD2
:102AA0000720F8BD0421022003F044F941F201009F
:102AB00026F084F941F2020026F080F93B787E701E
:102AC000022B38BF02233B7029462046BDE8F84060
:102AD000FFF782BE0421022003F02CF91821032005
:102AE00002F0D2FE40F2014026F068F940F20240C6
:102AF00026F064F9E2E70421022003F01BF910211B
:102B0000032002F0C1FE0022FC21062003F0D4F9CC
:102B10003022F021072003F0CFF940F2012026F007
:102B20004DF940F2022026F049F9C7E704210220BE
:102B300003F000F91021032002F0A6FE0022FC2180
:102B4000062003F0B9F92022E3E70421022003F074
:102B5000F1F81021032002F097FE0022FC2106204C
:102B600003F0AAF90022D4E70421022003F0E2F8DE
:102B70002021032002F088FE40F2011026F01EF909
:102B80004FF4817026F01AF998E70421022003F02F
:102B9000D1F80821EDE7BA21032002F075FE0021EB
:102BA000552002F071FE00220421122003F084F966
:102BB0006021A92002F00EFD8021152002F064FEA4
:102BC00048F6010026F0FAF848F6020026F0F6F87A
:102BD00074E70421022003F0ADF8A021032002F0E5
:102BE00053FE48F2014026F0E9F848F2024026F090
:102BF000E5F863E71820F8BD0421022003F09AF8F5
:102C00008821032002F040FE48F2011026F0D6F899
:102C100048F2021026F0D2F850E70221032002F019
:102C200033FE00220421122003F046F96021A9207E
:102C300002F0D0FC8021152002F026FE40F60100B3
:102C400026F0BCF840F6020026F0B8F836E70F2070
:102C5000F8BD00BF08200020074B1A784AB15A7807
:102C60003AB108B19A78027009B1DB780B70002094
:102C700070472120704700BF0820002010B504468F
:102C800060B1012802D0094BDC7110BD84228F2174
:102C9000452003F07BF9054BDC7110BD80214520F8
:102CA00003F048F8014BDC7110BD00BF0820002084
:102CB000034A044B904228BF10461861704700BF7A
:102CC000F8FF070008200020014B1869704700BF7B
:102CD00008200020B0F57F5F28BF4FF47F50014BE4
:102CE000D860704708200020034A044B904228BF58
:102CF00010469860704700BF8074D90408200020F7
:102D0000034B186C08B90120704703F0C1BB00BF2A
:102D100008200020802238B50220114603F034FA42
:102D2000002842D02E4C2378002B3ED0022026F0E3
:102D300045F808220220114603F026FA08B123794B
:102D4000B3BB0021552002F09FFD01220321022088
:102D500003F0B2F8FF22237D114603F00303C820DD
:102D600002F094FB032205461146022003F0A4F86A
:102D70000220082294F814C01A4B0CF1010CA3FB9A
:102D80000C13ACEB030E03EB5E03C340C3EBC303B6
:102D9000ACEB030C114684F814C003F0F5F9207174
:102DA000C8B9A36843B9284638BD2125284638BD8F
:102DB000A3680025002BF6D043F2F840984238BFB4
:102DC0001846094AA2FB0020C0F30F3003F05AFB5B
:102DD0002064284638BD4821022003F00BF8E0E7C4
:102DE00008200020254992240520544D10B50F4C91
:102DF000237E4BB94821022002F09CFF032025F0DE
:102E0000DDFF0020207110BDE021052002F092FFBF
:102E100008210C2002F0EEFF0023626DC4E911339B
:102E2000E364002AE6D09047E4E700BF08200020D2
:102E3000002800F0E980F8B54369044603F09003E8
:102E4000102B00F0B180714D2B78012B36D9082260
:102E50000220114603F098F9002831D16B780A3B23
:102E6000022B29D80FCC05F11C06B446ACE80F00A4
:102E7000EB6894E807008CE80700002B36D0C027E9
:102E800040240821122002F055FF6B78032B00F03C
:102E9000A880E9680F20A1422ABF091B0421C1F3C1
:102EA000871102F0F1FC6B6B5A1E03325ED8EA68A0
:102EB00093421FD80720F8BD23680BB12120F8BD2D
:102EC000534E0FCCB446ACE80F00EB6894E8070013
:102ED0008CE8070053B16B785A1E012A66D9032B80
:102EE00048D14FF405774FF4CA74CAE76B6B5A1E8A
:102EF00003323BD86A78511E012934D9032A5AD1AA
:102F00004FF43462434913448B4228BF0B4698095F
:102F10006B6302F02FFB03200B2102226B78EF6919
:102F2000073B012B287029766A8329D83A4C06F58D
:102F3000FE7C0FCE0FC496E80700D5F82C344FF472
:102F4000825E002B18BF634684E807006B62D5F8E9
:102F50003834A5F828E003F0080343F033032B636B
:102F600097B10020F8BD4FF42072CBE7002002F0AB
:102F700001FBD0E7072B82D14FF48077802480E7D4
:102F800017B12B8C002BECD1FFF7CAFA6B7803F04A
:102F9000FB03092B19D0D12002F048FEE32002F0F8
:102FA00045FE51232B76DCE71820F8BD4FF4CA7795
:102FB0004FF48A7465E7062A0FD1AA78012A14BF54
:102FC0004FF410724FF488629CE70821022002F04F
:102FD000B1FEE42002F02AFEDDE7092AEDD040220E
:102FE00090E7002204210A2003F0CEF800283FF4E5
:102FF00050AF08214C2002F0FDFE14221F21462074
:1030000002F05AFF3C4644E70720704708200020A2
:103010002420002000F0FF0F2C240020034B187EFA
:103020000B3845288CBF0020012070470820002065
:10303000034B1A7E0AB9588B70470220704700BFB5
:103040000820002030B52E4C83B0237E002B40D1C9
:10305000658B022D3AD0D4F8B8301B78BBB1D4E9D7
:103060002C021178425C42FA03F34354D4E92C1346
:10307000D4F8B8001A7800788B5C83408B54D4E97C
:103080002C131A7894F8AC008B5C03438B541D2DE1
:1030900023D0042003F0AEF90121052002F04AFEFE
:1030A000A078EA2898BF01300001C0B240F48070D7
:1030B00040F0010025F082FEE078EA2898BF013058
:1030C0000001C0B240F4817025F078FE284603B0BC
:1030D00030BD0225284603B030BD20200DF1070188
:1030E00002F022FB9DF80730D4F8B4201B091370BE
:1030F0009DF80730D4F8B820C3F342031370C8E733
:103100000820002038B540F20363354C22889A42EB
:103110004ED1237E002B48D1658B022D45D0042D46
:1031200020D194F8D430D4F8C400E37118B194F8E5
:10313000C830002B3FD1D4F8CC3013B194F8C9205B
:103140001A70D4F8D03013B194F8CA201A70D4F899
:10315000C83023F07F4323F0FF03002B18BF002566
:10316000284638BDD12002F061FDD52002F05EFD79
:10317000FF2384F83F3065BB94F8C9300133DBB2DC
:1031800003EB830204EB8202D53284F8C930626219
:1031900002222420114602F0F7FF0028C1D00221AC
:1031A000032251236183227023760225284638BDED
:1031B0002125284638BD94F8C920002ABBD0934267
:1031C00028BF134603EB830306499A004DF05CFECB
:1031D000B1E794F8CA30013384F8CA30D8E700BFA9
:1031E00008200020DD20002038B5224C2378002B59
:1031F0003ED00022A37984F85C20FBB902F026F8C7
:10320000237E23BB00254821022002F093FD0320EA
:1032100025F0D4FD0D210820257102F0EBFD0821D9
:10322000032002F031FB144803F0E4F8134803F0E4
:103230006FF8072025F0C2FD284638BD4021012047
:1032400002F030FD02F002F8237E002BDAD0E021FC
:10325000052002F06FFD08210C2002F0CBFD0023B9
:10326000626DC4E91133E364002ACBD09047C9E70B
:10327000212038BD082000208000001F0800001F0A
:103280002DE9F8432B4D2E78CEB30D28044649D0B6
:103290001028894690461F4637D00C2832D101218C
:1032A000082002F047FDCE2002F0C0FCC822FB211E
:1032B000032002F001FE2021052002F03BFDD12079
:1032C00002F0B4FCA86E40F4700040F4C95003F062
:1032D0002BF840223120114602F056FF28B3042279
:1032E000002385F85C402A70C5F87090A5F87480BA
:1032F000AF6718463B8085F87C30BDE8F883212015
:10330000BDE8F8830720BDE8F8830521082002F016
:1033100011FDCE2002F08AFCE822FB21032002F0FE
:10332000CBFDC8E70F20BDE8F883FFF75DFF252040
:10333000E6E700BF08200020054B11B193F86C2090
:103340000A7010B193F87C20027093F85C0070470B
:103350000820002070B5CF4C2378002B00F0378177
:103360000022431E064684F87C200F2B00F22F819A
:10337000DFE813F03200640094002D01C5008700DF
:103380008200820009018200030146014601940087
:1033900087004601C22002F049FC032101220846B1
:1033A00002F08AFD0821022002F0C4FC40223120F4
:1033B000114602F0E9FE00284ED194F85C30062B4D
:1033C00000F05A81DB2002F031FCD12002F02EFC0B
:1033D000A179002940F04A814021022002F00AFD33
:1033E000C22002F023FC236E580500F12281D9048B
:1033F00000F119819A0400F10C812021052002F0CE
:1034000099FC4FF0FF3002F0F5FFA06E40F4700021
:1034100040F4CD5002F088FFFF23FB2194F8642094
:10342000032084F86C3002F047FD40223120114621
:1034300002F0AAFE0546002800F0E5808022022066
:10344000114602F0A1FE002800F0C480802002F0A6
:103450005FFF236E9B049DD494F85C30062B00F034
:10346000FD80DB2002F0E2FBD12002F0DFFBA1793E
:10347000002940F0E7800226002584F85C60284699
:1034800070BD0121082002F0B5FC4FF4700002F07D
:103490003FFF102002F07EFF0025EEE794F86C104D
:1034A000084601F0C7FF0421082002F0A3FC23789E
:1034B000002B00F0CD8094F86C50FF2D00F0E880D8
:1034C0000421022002F036FC8821032002F0DCF9FE
:1034D00048F2011025F072FC48F2021025F06EFC53
:1034E00023780A22022B38BF02232946284662701D
:1034F0002370FFF771F9054604232370BDE794F8A4
:103500006C10084601F096FF0121082002F072FCC1
:103510002378002B00F0A08094F86C50FF2D00F071
:10352000B3800421022002F005FCA021032002F058
:10353000ABF948F2014025F041FC48F2024025F089
:103540003DFC23780C22022B38BF02232946284653
:1035500062702370FFF740F905460423DB202370D7
:1035600002F064FBD12002F061FB4FF4700002F026
:10357000CFFE102002F00EFF7FE70421082002F0AA
:1035800039FC002579E72378002B63D094F86C5040
:10359000FF2D7BD00421022002F0CCFBA0210320D0
:1035A00002F072F948F2014025F008FC48F20240AE
:1035B00025F004FC23780C22022B38BF0223294675
:1035C000284662702370FFF707F9054655E7212565
:1035D000284670BDC021022002F00CFC10223120D0
:1035E000114602F0D1FD00287FF433AF0A2180207C
:1035F00002F06AFE00287FF42CAF022603253CE788
:103600000525284670BDC821022002F093FB012643
:1036100033E703210122084602F04EFC0821022074
:1036200002F088FBE9E60421082002F083FB236E08
:10363000E0E60121082002F07DFBCD2002F0F6FA41
:10364000236ED4E641F04001012002F02BFB12E78B
:10365000212551E7212510E721257EE701210820BA
:1036600002F068FBCD2002F0E1FAFAE641F04001F9
:10367000012002F017FBAFE60121082002F05AFBFF
:10368000CD2002F0D3FA9DE6072566E70725F4E68C
:10369000072531E7082000202DE9F0477D4C86B052
:1036A00094F800C0BDF83C70BCF1000F00F0B98088
:1036B00090460022054610F480609946C4E919221C
:1036C00084F85C200CD14FF0090A0D2615F4006334
:1036D00011D0B8F1000F0AD0182006B0BDE8F0876D
:1036E0000E4621B10B78042B6BD0072B68D0072036
:1036F00006B0BDE8F087EA0440F19780B9F1000F09
:10370000F5D0ADF813304B46D9F802201521CDF88D
:10371000022033F8022B6846ADF800205A68CDF835
:1037200006209A68CDF80A20DA681B7CCDF80E20B6
:103730008DF8123002F0E2F994F87D30002B00F0A1
:103740009D80A36E606E43F0C05340F0E00043F0F4
:103750001003A90456466066A3666ED40E9B4FF014
:10376000040C2367109B25660025A3674FF4807324
:103770003246109E84F800C0A4F874700D21358084
:103780000820A4F87C3002F097FB2A46E0211220A2
:1037900002F092FB0821122002F02CFB02210F20E4
:1037A00002F072F8E021052002F0C4FA062025F0AC
:1037B00005FB0120FFF7CEFD284606B0BDE8F087E7
:1037C000102230210A2002F077FB6B46D6F8010068
:1037D000D6F80510B6F8092003C31A80B6F80B30E6
:1037E0003178ADF80A30737B042903F0FB020CBF7B
:1037F000134643F0040368460F218DF80C308DF812
:103800000D208DF80E2002F02DF9606EA36E40F0B1
:10381000C80043F098534FF0080A0C266066A36670
:1038200054E7212006B0BDE8F087AA0405D40306BA
:1038300094D4052006B0BDE8F08740F0E90080216F
:1038400060660A2002F076FA0321227D0A2002F047
:1038500033FB227D104B0132A3FB0213A16E606E7D
:1038600041F01001A166D11A03EB51039B08C3EB91
:10387000C303D21A06F0F7062275D8E7074E084BA5
:103880006846CDE90063074B0C21029302F082F9F0
:1038900057E700BF082000202549922412345678AB
:1038A0009ABCDF21436587A9F0B5974D8DB02C7880
:1038B000042C5FD0052C11D0032C0DD1E86C00280E
:1038C00040F080802B7EA3F10B02D1B2452940F25B
:1038D0004183502B00F2A0810DB0F0BD95F88030EF
:1038E000023B012BF8D84FF4702002F011FD0028A4
:1038F000F2D0460305D50122032385F8A42085F8DC
:103900008030840305D50122032385F8A62085F89D
:103910008030C10305D50122032385F8A82085F84E
:1039200080300203D8D5012095F8843085F8A200B4
:10393000002BD1D02022114602F026FC024600289E
:1039400000F0098580228421022002F0B5FA0520CA
:1039500049F004FA95F88640002C40F06F8595F800
:103960009060002E40F0A68504228421022002F0FF
:10397000A3FAB1E795F85C30013B0F2BACD801A25C
:1039800052F823F0113B0008313B0008F53B0008DA
:10399000D9380008D13B0008873A0008D938000818
:1039A000D9380008D9380008D9380008D9380008B3
:1039B000173A0008173A0008A53B0008873A0008A4
:1039C000173A000802F064FD00283FF47BAF5A2349
:1039D00000216A7E6C839A422B760A9100D06B7626
:1039E000AB79002B40F06085E021052002F0A2F9C0
:1039F00008210C2002F0FEF900236A6DC5E911339D
:103A0000EB6402B190476B8B022B04BF08236B83DE
:103A100000232B7660E73D4802F07AFC0B900B9B6D
:103A2000002B3FF459AF0B9BDE0500F125840B9B67
:103A30001C0500F184830B9B13F0006300F00884E5
:103A400095F86C30FF2B40F0C7830B9BDB0600F131
:103A5000CF800B9BD9007FF53FAF95F86C30002BE2
:103A60007FF43AAF2B6E5A057FF536AF21200AA9B5
:103A700001F05AFE9DF82830092B7FF62DAF0E205D
:103A8000FFF768FC28E74FF4016002F041FC0B905F
:103A90000B9B002B3FF420AF0B9B1C0500F14F83C9
:103AA0000B9BD8067FF518AF4FF4700002F030FC86
:103AB0000B9BAC6F03430B9301F044FD0B9BAA6F70
:103AC0001902208009D40B9BDB0206D40B9B5F02FA
:103AD00003D41388022B00F205860023DB20138019
:103AE00002F0A4F8D12002F0A1F895F85C300F2B79
:103AF00000F063850220FFF72DFC10200DB0BDE81B
:103B0000F04002F077BC00BF082000201009001828
:103B10004FF4805002F0FCFB0B900B9B002B3FF40A
:103B2000DBAE0B9BDF047FF5D7AE0220FFF712FC64
:103B3000A64802F0EDFB0B900B9B002B3FF4CCAEA4
:103B40000B9BDE0500F14A830B9B1C0504D595F801
:103B50007C30002B00F0F3820B9B180140F1F182C6
:103B600095F86C30FF2B40F037830B9BDA063FD47F
:103B70000B9BDC007FF5B0AE95F86C30002B7FF42A
:103B8000ABAE2B6E58057FF5A7AE21200AA901F038
:103B9000CBFD9DF82830012B7FF69EAE0320FFF76A
:103BA000D9FB99E68A4802F0B3FB0B900B9B002BE4
:103BB0003FF492AE0B9B1B0500F1C1820B9B9F0152
:103BC0007FF58AAE0F200DB0BDE8F040FFF7C2BB15
:103BD000804802F09DFB0B900B9B002B3FF47CAECA
:103BE0000B9B190500F1AB820B9BDA0600F1648395
:103BF0000B9B71E6784802F08BFB0B900B9B002B24
:103C00003FF46AAE0B9B1E0500F199820B9BDD0110
:103C10007FF562AE0620D6E700216A7E0A919A42BD
:103C200018BF6B76513B092B00F2898501A252F82F
:103C300023F000BF073F0008CB3E00089F3E00086E
:103C4000013E0008333E0008993D0008A93C0008E9
:103C50002D3F00085B3D0008E13900080A9A560232
:103C600000F1A0840A9A140200F1D9840A9A50073C
:103C700000F1F5840A3B022B03D80A9B190500F1D9
:103C80003D810A9BDA0640F1768395F83F30FF2BA1
:103C900000F0438595F83F3013F00E0F00F00C85CF
:103CA00028236B8357232B7695F83F30FF2B00F0AA
:103CB0007B8499002B6B95F83E2001F440719F079F
:103CC000A88F41EA02010AD46B8FCA1892B2002A67
:103CD00000F02B84022940F29C84023989B26B8F58
:103CE0002A8D0B449BB20732B3EBD20F6B874FEA9E
:103CF000D20407D96B8B241A022B08BF0123A1B26F
:103D000008BF6B836B6A184401F062FEEB6AA3B1D3
:103D10006A8FD2001A8095F83F30FF2B00F0648440
:103D200013F00E0F09D0E96A95F83F300A88C3F303
:103D30004203C3F10803D31A0B806C78E31F012BF5
:103D400040F2118304F0FB04092C00F0CB826B8B52
:103D5000022B40F00C8359232B76AB79002B40F0DB
:103D6000EE82E021052001F0E5FF08210C2002F0A1
:103D700041F800236A6DC5E91133EB6402B1904745
:103D800000236B832B76A7E5144802F0C1FA562274
:103D90000A9B2A7603430A930A9BDB020CD46B78B6
:103DA000A3F10902042A7FF659AF0A9A97027FF518
:103DB00055AF052B3FF452AF092257236A832B7668
:103DC0000DB0BDE8F040FEF76FBC00BF1009001851
:103DD0000008000210080008000800010400F000BC
:103DE0000A9B9E0640F1C782322002F04BFB542210
:103DF0000A9B686423F4804323F020032A760A9305
:103E0000954802F085FA0A9B03430A930A9B002B0C
:103E100000F0FB820A9B9C0700F195830A9B5806E1
:103E200040F1EB820A9BD90600F1E78255232B76FD
:103E300052E5322002F026FB95F83F306864FF2BF4
:103E400000F0C48395F83E109C0004F440746B8F1E
:103E50000C432A8D23449BB20732AE8F696AB3EBC1
:103E6000D20F6B8701EB06004FEAD20740F26C825B
:103E7000B91B89B2079101F0ABFDAB8F07990B44D9
:103E80008C42AB8705D9F11B2144002089B201F097
:103E90009FFDFF22542385F83F202B761CE544F636
:103EA000200002F035FA0A900A9B002B3FF414AD73
:103EB0000A9B590440F176820A9B9A0600F17282AD
:103EC00004225A236A832B7606E5644802F020FA1E
:103ED0000A900A9B002B00F0A9820A9BD80444BFD9
:103EE00053232B760A9B590440F19B8204215A22CA
:103EF0000A9B6983002B2A76BFF6EEAC25225A2353
:103F00006A832B76E8E40022EB6AC5F83A2003B115
:103F10001A800A2002F0B6FA6B78A86403F0FB035B
:103F2000092B0CBF522353232B76D5E44FF4C060EA
:103F300002F0EEF90A900A9B002B3FF4CDAC0A9BED
:103F40009A0540F11E836B8B022B0CBF59235A2319
:103F50002B76C1E40020697E0990994218BF6B76E8
:103F6000092A00F2F283DFE812F00A000C001400C4
:103F7000230049007B008D005E006C00CF000C2305
:103F80002B76286C002840F0BB8100220D232A6488
:103F90002B766B7803F0FB03092B07D00422242037
:103FA000114602F0F1F800287FF496AC0E232B7630
:103FB000FEF7B6FA4FF49C726B78288C2A87DA1FCA
:103FC000C11D012A4FEAD10140F21581698701F034
:103FD000ADFA698FE869B1F5007F28BF4FF4007131
:103FE000A98701F0A9FC6979002940F075816B78F7
:103FF0000A3B022B40F252810F232B76AB6D1BB193
:10400000984700283FF468AC2B6BDB0740F14281F6
:10401000C52001F00BFEAB8F6A8F93422CBF122399
:1040200010232B7658E4482002F072F90990099B7E
:10403000002B3FF451AC099B1C0740F1A2811323D4
:104040002B766B6AA979002B00F07681002940F06D
:10405000C58251232B763FE45208000800500080AF
:10406000482002F055F90990099B002B3FF434AC2D
:10407000099B5F0640F18981099B1E0700F185813C
:1040800011232B7669786A8FAC8FCE1F012E2B8F70
:10409000E869A2EB040200F299819342C8BF93B28F
:1040A000A1F10801B3F5027FB1FA81F128BF4FF405
:1040B00002730022490904930091ADF82C20D5F831
:1040C0003824B54CC2F38011D243039481F001032C
:1040D000298C0BAE0731059604F50276A4F5EF7432
:1040E00003F00103C9080296019402F0010224F0D2
:1040F00089FF002800F01C820D2800F0198214228C
:1041000068832A76FFF7E8BB6B8B022B04BF08237A
:104110006B83AB79002B40F01182E021052001F088
:1041200009FE08210C2001F065FE00236A6DC5E937
:104130001133EB64002A3FF46BAC904768E4012034
:1041400041E50B9BD9067FF513AD95F86C30FF2B3D
:104150003FF44EAD914802F0DBF80B900B9B1A0236
:1041600000F1DD800B9B5B0200F1D9800B9BDF022D
:1041700000F1D5802B6E9E0400F1CA82AC6F01F075
:10418000E1F9AA6F2080B5F8743011880733DB0895
:10419000994228BF1946286F01F01AFCAB6F1A88A4
:1041A000022A04D995F86C30002B00F0B080012071
:1041B000AA6F1388022B94BFDB1A023BDB0013802B
:1041C000AB7985F87C00002B3FF486AB40210DB025
:1041D000BDE8F04001F066BD0520F4E424200AA902
:1041E00001F0A2FA9DF828301B09022B28BF0223F8
:1041F00085F86C30A8E4A3F10803B3FA83F3002236
:10420000D5F838445B090093A5F82024C4F3801343
:10421000E2434FF400746248049400F5EE74059094
:10422000039400F57974023883F00103029401903D
:10423000E86903F0010302F0010224F0E3FE002824
:1042400054D00D2852D0142368832B76FFF744BB3B
:104250000B9AD0067FF5FDAB95F86C20FF2A3FF452
:10426000C7ACDB20AA6F138001F0E0FCD1200DB0B9
:10427000BDE8F04001F0DABC24200AA901F054FAAC
:104280009DF828301B09022B28BF022385F86C30CB
:10429000FFF7CDBBC42001F0C9FCBCE640223120B1
:1042A000114601F071FF00287FF4A6AE25221423E9
:1042B0006A832B76FFF710BB4FF4300002F028F82A
:1042C0000B9B03430B930B9B1B0203D40B9BDF0243
:1042D00040F1A881DB20C7E741F04001012001F057
:1042E000E1FC84E658232B76FFF7F6BA688FC0000E
:1042F00080B201F01BF9A98F274801F01DFB72E67F
:1043000002F0C6F800287FF440AEFFF7E5BA46F2A7
:104310006330296F24F0C8FD00283FF448AFDB204C
:1043200001F084FCD12001F081FC082102200DB0B5
:10433000BDE8F04001F0FEBC00293FF412AD402181
:10434000012001F0AFFC0CE5214601F041FBAB8FF1
:104350001C44AC879DE50421022001F0ADFD00F076
:1043600075FFFFF7F7BA6B8B022B00F07B815A23A6
:104370002B76FFF7B1BA03225A236A832B76FFF715
:10438000ABBA099B58063FF5A7AA032214236A83F8
:104390002B76FFF7A1BA00BF202200201008F008FA
:1043A000442000200A9B1B057FF51AAD0A9B9F063F
:1043B0003FF516AD6B785A2203F0FB03092B0CBFB7
:1043C000042325232A766B83FFF786BA9342A8BF7E
:1043D0001346204499B2ADF82C1001F0ADFAAB8F22
:1043E000BDF82C106A8F0B449BB29A4294BF1222E4
:1043F0001022AB872A76FFF76FBA0A9B1A017FF566
:10440000C3AC53232B76FFF767BA686C02F040F811
:1044100000283FF461AA09225A236A832B76FFF70A
:104420005BBA0A9B002BBFF657AA67E5A86C02F09F
:104430002FF800287FF462ADFFF74EBA0BA800F00A
:104440006FFF95F888309DF82C1095F8872003F0C1
:104450000303B5F88A009B0185F8A31043EA022301
:10446000090210B90846A5F88A10C218914280F2D4
:104470009280C31A994240F38E80002495F88C30C4
:10448000002B3FF46CAA95F88D3013B9002C7FF403
:1044900066AA042295F88E309A40D2B2FEF7E6F86A
:1044A000A5F88A00FFF75BBA4021012001F0FAFB72
:1044B000FFF79ABA0BA800F051FF95F892309DF8DB
:1044C0002C1095F8912003F00303B5F894009B019C
:1044D00085F8A51043EA0223090210B90846A5F899
:1044E0009410C218914202DAC31A994206DC0123E1
:1044F0000322344685F8802085F8A63095F896305A
:10450000002B3FF431AA95F8973013B9002C7FF4B3
:104510002BAA042395F8982003FA02F2D2B2FEF7F0
:10452000A5F8A5F89400FFF71FBA6A87FFF7EABB62
:10453000BDF82C10884801F0FFF950E74021012018
:1045400001F0B0FBE9E54FF4804001F0E1FE0246E6
:1045500000287FF4B5AC0221242001F015FE0028CC
:104560007FF4AEAC202001F0D3FE042231201146AE
:1045700001F00AFE00283FF444AF54232B76FFF7E6
:10458000ABB90A9B5B057FF5F6AE1D225A236A8301
:104590002B76FFF7A1B90123032285F8A43085F813
:1045A00080206BE71B2208E402221E206B4901F0E9
:1045B0000FF995F83F30FFF77CBBAB6FB5F874206F
:1045C000296F0C20FEF75CFEFFF797BA02221E202F
:1045D000624901F0FDF895F83F3033E441F04001C5
:1045E000012001F05FFB34E502221E205B4901F04F
:1045F000EFF895F83F3013F00E0F3FF49EABFF2B12
:104600007FF491AB022255491E2001F0E1F8FFF73B
:104610008ABB022B84BF023B6B87FFF760BB15226E
:10462000FFF7CBBBAC6F00F08DFFAA6F2080B5F811
:10463000743011880733DB08994228BF1946286F68
:1046400001F0C6F90121AA6F1388022B94BFDB1A6F
:10465000023BDB00138085F87C10FFF73DB91D227B
:10466000FFF7ABBB0020B5F84024B5F83034029218
:10467000D5F83424A4F10806019274420BAA0092E2
:104680007441D5F82C24698F07330394ADF82C00BE
:10469000DB08686A24F0C6FEA0B1152844D0304F6C
:1046A000688307F581660FCE0FC796E807006C7820
:1046B00087E80700FFF746BBDB0744BF09236B838E
:1046C000FFF7F0BAD5F83824970709D4D5F8341491
:1046D0000A88560704D10F2A84BF103A0A8060BBAB
:1046E0000220DCE7023B9BB21380B5F87410286F00
:1046F0000731C908994228BF194601F069F901211B
:10470000AA6F1388DB00138085F87C10FFF7E4B8EC
:10471000BA21032001F0B8F830E502220F491E202B
:1047200001F056F8FFF7B6BAD5F83824930704D449
:10473000D5F834140A885407CDD01520AFE70822E5
:104740005A236A832B76FFF7C7B8082214236A839B
:104750002B76FFF7C1B800BF2022002046200020A2
:10476000242000202DE9F0433B4C89B094F800C090
:10477000BCF1010F39D994F80190B9F1010F34D18E
:10478000054670B30E4661B3174652B3984643B31D
:1047900040F2031024F012FB4946052001F02AFBE9
:1047A00028230422ADF81030109B39780793337812
:1047B0000A2001EBC301ADF808102B441146039306
:1047C0000195CDF8148001F0DFFCC00040F08300BB
:1047D000069001A8FEF72CFB814650B109B0BDE858
:1047E000F083072009B0BDE8F083212009B0BDE8BF
:1047F000F083042001F08CFD042001F0CBFD84F84F
:10480000AC903B788BB13178C3F108036A5C02FA53
:1048100003F36B5431783A786B5CC2F108021341B0
:104820006B543378EB5C84F8AC30C4E92C56C4E9A3
:104830002E78FFF739F8237E1BB9608B09B0BDE8ED
:10484000F083A3F10B02452AF3D9502B8CBF002330
:1048500001235800C2E700BF0820002010B5054C16
:10486000FFF722F8237E002BFAD1608B0228F7D0C5
:1048700010BD00BF082000202DE9F8439046082213
:1048800081460E46022011461F46089D01F07CFC21
:10489000002879D0554C2378012B75D96378013BDA
:1048A000012B71D8002E73D0002F71D06B1C6FD0EC
:1048B000B9F1260F7AD0B9F1520F69D14FF0C7097B
:1048C000206C002868D104222420114601F05CFCF1
:1048D0000028F8D1464B206405F52070984228BF87
:1048E00018468323800923636662A4F82880E76260
:1048F000656300F03FFEE368002B60D1206950B192
:1049000040F23B43984288BFA0F23C40C0082021BF
:1049100080B200F05FFEFDF703FE042001F0F8FC1A
:10492000042001F037FD6179002942D100212320C4
:1049300000F0AAFF484601F079F946F6EF139D42D0
:104940008ABF2C4B0121A3FB05314FF0080088BF23
:10495000C1F30F3101F0B8FC18B3A17900293FD1A0
:10496000032151220223217022766383FEF79CFFEC
:10497000237E002BFAD1658B022DF7D0042001F0A5
:1049800039FD2846BDE8F88321252846BDE8F8838F
:1049900007252846BDE8F88301F07AFD002892D16A
:1049A0008EE70420032501F025FDEAE74FF0C60954
:1049B00086E741F04001012001F074F9B6E70821D3
:1049C000122001F0B7F9E3680F20B3F58A7F2ABF00
:1049D000A3F58A730421C3F3871100F055FF8DE717
:1049E00041F04001012001F05DF9B9E70820002005
:1049F00000F0FF0F0520544D10B5044688B00A980A
:104A0000DB000490C90068460292ADF80C300094B7
:104A1000DDE90B23ADF80410CDE90523FEF708FA14
:104A200008B108B010BD094CFEF73EFF237E13B954
:104A3000608B08B010BDA3F10B02452AF4D9502BAE
:104A40008CBF002301235800EBE700BF08200020A3
:104A500030B589B00C9DDB000090C9006846029219
:104A6000ADF80C300495DDE90D23ADF80410CDE967
:104A70000523FEF7DDF908B109B030BD0F4CFEF794
:104A800013FF237E93B9608B0028F5D1FEF70CFF4E
:104A9000237E002BFAD1608B0228F7D0002DEBD0BB
:104AA0002B880733DB082B8009B030BDA3F10B0244
:104AB000452AE4D9502BE9D80220DDE70820002060
:104AC000F0B52C4C8BB027789DF84050012F03D9BE
:104AD0001E466378062B03D0212738460BB0F0BD65
:104AE000E3798DF8072084F8D43000230122A4F85C
:104AF000C9308DF8043008932823E271A0228DF884
:104B00000800ADF81030033004F1D503800305939D
:104B100001AB8DF806100990090A039303A804F16C
:104B2000C0038DF80510ADF818200793FEF780F943
:104B300007460028D1D1FEF7B7FE237E73B9638BF9
:104B4000A3B93846119BC4F8C460C4F8CC30129B9A
:104B500084F8C850C4F8D0300BB0F0BDA3F10B02FC
:104B6000452AE8D9502BECD80227B6E71F4638462D
:104B70000BB0F0BD082000202DE9F041404C88B07A
:104B800094F800C0BCF1010F03D91E466378072BCF
:104B900004D02125284608B0BDE8F0810D468046A6
:104BA00041F20300174624F009F9F300ADF8103084
:104BB0000E9B002D4FEAC50105934FF0100214BF64
:104BC0000A234B23ADF808104FF4A25101A8CDF8E9
:104BD000048003970791A4F840240693FEF728F970
:104BE00005460028D6D1FEF75FFE237E002B39D183
:104BF000658B002D2DD01D2D0AD8224BEB40DB07F5
:104C000006D50E9B1B8807335F2B4FEAD30031D9A3
:104C1000A378EA2B96BF581C18010001C0B240F4DB
:104C2000805040F0010024F0C9F8E378EA2B96BFE9
:104C3000581C18010001C0B240F4805040F002003E
:104C400024F0BCF800232846A4F8403408B0BDE89E
:104C5000F081FEF729FE237E002BFAD1658B022D11
:104C6000F7D0C8E7A3F10B02452ABCD9502BF0D8E6
:104C70000225CDE7C0F10C00800848F06FF8C7E7C7
:104C80000820002000022020F0B53B4C8BB0237898
:104C9000012B02D96378072B03D0212528460BB0BE
:104CA000F0BD074641F203000D46164624F086F893
:104CB00010230022A4F840340DF10703ADF80C20B6
:104CC00002934B224FF4A253E90002A8CDE90662F9
:104CD0000497ADF814100893FEF7AAF805460028CB
:104CE000DCD1FEF7E1FD237E002B36D1658B5DB371
:104CF0001D2D09D8214BEB40DB0705D53388073341
:104D00005F2B4FEAD30030D9A378EA2B96BF581C0B
:104D100018010001C0B240F4805040F0010024F0BE
:104D20004DF8E378EA2B96BF581C18010001C0B279
:104D300040F4805040F0020024F040F80023284660
:104D4000A4F840340BB0F0BDFEF7AEFD237E002B7F
:104D5000FAD1658B022DF7D0CAE7A3F10B02452AE1
:104D6000BFD9502BF0D80225CEE7C0F10C00800847
:104D700047F0F4FFC8E700BF082000200002202011
:104D8000F0B5B74C83B02378002B00F0F6800028F4
:104D900000F01F81056841688268C368C4F88250CA
:104DA000C4F88610C4F88A20C4F88E3005694169B9
:104DB0008269C369C4F89250C4F89610C4F89A2066
:104DC000C4F89E3094F89A3094F88620002B00F0B6
:104DD000C980002A40F0CE8094F89030002B40F03B
:104DE000C98094F88430002B40F0C480B4F88A3035
:104DF000B4F89410B4F89C200B4313439BB2FF2BE0
:104E000000F2B8804821022000F094FF0321022024
:104E100000F090FFF8210822032001F04DF8042053
:104E200023F0CCFF94F8823094F883200F2B8CBFB2
:104E3000002101211D0145EAC11594F884606DB27D
:104E4000002A00F09D8045F00805EDB2002E40F0EC
:104E50009C804FF440274FF4002694F8863023B30B
:104E600094F8873094F88C10332041EA031194F8B9
:104E70008D3041EAC30194F88E305B0003F00603E5
:104E80001943C9B28DF8071000F0FEFC94F88C307D
:104E900043B9B4F88A10FF2900F0CF80C9B234209A
:104EA00000F0F2FC3E4645F0040594F890302BB338
:104EB00094F8913094F89610372041EA031194F851
:104EC000973041EAC30194F898305B0003F0060381
:104ED0001943C9B28DF8071000F0D6FC94F896304B
:104EE00043B9B4F89410FF2900F09E80C9B238206D
:104EF00000F0CAFC45F0020546F4003694F89A30FA
:104F0000002B4BD08821022000F014FF002000F07D
:104F100061FA94F89B3094F89E1094F89F2041EA2F
:104F2000031194F8A03041EAC2015B0003F00603CC
:104F30001943C9B23B208DF8071000F0A5FC94F886
:104F40009E3013B194F884303BB1B4F89C10FF2923
:104F50007CD0C9B23C2000F097FC45F0010546F436
:104F600080361BE0002A7FF441AF94F89030002B8C
:104F70007FF43CAF072003B0F0BD212003B0F0BDAB
:104F8000002E4DD045F00805EDB200234FF4002669
:104F9000A4F88A30A4F89430A4F89C304FF0FF3085
:104FA00001F028FA304601F0B3F9304601F0F2F989
:104FB0002946322000F068FC0422CF21022000F0B4
:104FC0007BFF02220523002084F88020237003B099
:104FD000F0BD0125FF21202211230226A4F8830021
:104FE00084F8900084F89A0084F88C00A4F88A1061
:104FF0002846114684F8823084F88650A4F88760E9
:1050000001F0C2F800283FF4DDAE40F2012384F83D
:10501000845084F88C5084F88E60A4F88730D1E6F0
:105020004FF48027EDB218E70DF1070000F096F974
:105030009DF80710A4F8941059E70DF1070000F04F
:105040006FF99DF80710A4F88A1028E70DF1070002
:1050500000F0A2F99DF80710A4F89C107AE700BFB1
:1050600008200020034B93F88000022894BF002002
:10507000012070470820002038B5104B1D78052D01
:1050800001D0212038BD00240421022083F8804073
:1050900000F050FE4FF4702001F0ACF9C22000F097
:1050A000C5FD03220220114600F006FF00F0CEF8F5
:1050B000284623F083FE204638BD00BF082000208C
:1050C00070B5C4B220460D46164601F0BFF830B1A7
:1050D000324629462046BDE8704000F0EDBE07206C
:1050E00070BD00BF08B5C0B200F0BAFF002008BD17
:1050F000012210B5002482B011464B4803F0FEF89F
:10510000C12000F093FD0421012000F0BDFB3F20F1
:105110000DF107018DF8074000F006FB9DF8073000
:1051200003F0F803282B02D0242002B010BD01F0B8
:1051300091F801F09FF93D4B182101201C6000F00F
:1051400059FE10220420114600F08AFF802202201E
:10515000114601F019F800284AD0102231201146DA
:1051600001F012F800285BD0002207212C2000F06B
:10517000A3FE4FF4004001F0CBF84FF4004001F0E3
:1051800009F9DF2000F052FD64214FF4004001F0E6
:105190009BF84FF4004001F02DF90DF10701252097
:1051A00000F0C2FA9DF80730214C03EB4302C3EB39
:1051B000C2029B000533A4FB0343DB0813FA82F20F
:1051C00092B2B2F5616F2CBF002201228021D20180
:1051D000012000F071FE4821022000F0ABFD4FF0ED
:1051E000FF3001F007F901F035F9002002B010BDE1
:1051F000802001F099F8802001F08AF880210220B7
:1052000000F0F8FD0A21802001F05EF8802001F016
:10521000F1F810223120114600F0B6FF0028A3D18A
:10522000082002B010BD00BF000802424C2400203C
:10523000CDCCCCCC08B54FF0FF3001F0DBF8BDE8A9
:1052400008404821022000F075BD00BF802208B54B
:105250000220114600F098FF48B11022312011467B
:1052600000F092FF80F00100C0B2C00008BD8020B5
:1052700001F05AF8802001F04BF88021022000F064
:10528000B9FD0A21802001F01FF8802001F0B2F85A
:10529000E3E700BF10B5044682B080212C2000F067
:1052A000A9FD80212C2000F045FD4FF4004001F0C5
:1052B0002FF84FF4004001F06DF8D62000F0B6FC56
:1052C00006214FF4004000F0FFFF4FF4004001F0D2
:1052D00091F86C200DF1070100F026FA9DF80730D7
:1052E0001B098DF8073084B180220120114600F09F
:1052F0004BFF9DF8073058B94FF4616203EB83030D
:1053000003EB830302EB83032380002002B010BD74
:10531000042B88BF053B4FF4166288BFDBB2EDE774
:1053200010B504464FF4004000F0F2FF4FF4004087
:1053300001F030F8D32000F079FC0A214FF400404E
:1053400000F0C2FF4FF4004001F054F81CB12146B8
:10535000252000F0E9F9002010BD00BF10B504467B
:105360004FF4004000F0D4FF4FF4004001F012F879
:10537000D92000F05BFC0A214FF4004000F0A4FFAC
:105380004FF4004001F036F81CB12146252000F012
:10539000CBF9002010BD00BF10B504464FF400400B
:1053A00000F0B6FF4FF4004000F0F4FFDE2000F004
:1053B0003DFC0A214FF4004000F086FF4FF400400E
:1053C00001F018F81CB12146252000F0ADF90020AD
:1053D00010BD00BF10B5F82182B004462F2000F0A8
:1053E000A9FC4FF4004000F093FF4FF4004000F0A0
:1053F000D1FFDD2000F01AFC04214FF4004000F042
:1054000063FF4FF4004000F0F5FF0DF1070130207D
:1054100000F08AF99DF80730590707D59A0705D497
:105420000CB1DB082370002002B010BD032002B0D5
:1054300010BD00BF30B50C4683B005460DF1070125
:10544000042000F071F9FF2C08D0032C18D89DF827
:10545000073023F003031C438DF80740FF2D12D0C3
:10546000072D0DD89DF8071021F0300141EA0511F4
:10547000C9B28DF80710042000F006FA03B030BD61
:10548000072003B030BD9DF80710F4E78C4600F10B
:105490003801C9B2012938B538D8BCF1FF0F04462C
:1054A0001D462DD0FF2A0CBF70217F210CF0700CFF
:1054B00002F00F022A204CEA020200F0FDFC2A460C
:1054C00003210A2000F0F8FC164800F021FF1548DF
:1054D00000F060FF204600F0A9FB0A21124800F00E
:1054E000F3FE10F480640FD1820012D40C244FF428
:1054F000C05000F00DFF0B4800F07CFF204638BD87
:10550000FF2ADCD00F21D1E71D24F0E70724204635
:1055100038BD0A214FF4007000F0D6FE8305E5D5B2
:10552000E5E700BF000600200004002010B5044697
:105530002320E1B200F0A8F9210A2220BDE81040A2
:1055400000F0A2B910B582B00DF107011F2000F0E4
:10555000EBF89DF807300DF107019B091E201C0296
:105560008DF8073000F0E0F89DF80700204302B006
:1055700010BD00BFB0F5803F70B514D200221546B3
:10558000C0F30726C4B2114B01211860122000F0AD
:1055900093FC3146102000F077F92146112000F0ED
:1055A00073F9284670BD00F13F04B4F5800F08D2AE
:1055B000002524F03F00C4F38736C4F3871401228A
:1055C000E1E7FF24072526460148F8E74C240020A0
:1055D000C0FF3F0038B505460C461320290A00F0ED
:1055E00053F9E9B2142000F04FF92246E0211220CD
:1055F00000F062FC0CB1002038BDE02000F016FB8A
:10560000002038BD10B50278437882B19A1E022A74
:105610000BD8C3F104018378490103F1FF3CBCF1CD
:10562000060F4FF07804C9B212D9072010BDDA1E58
:10563000032AFAD8C3F10601C3784901C9B2002B85
:10564000F3D08378702403F1FF3CBCF1060FECD853
:10565000C0780328E9D8C3F1070343EAC00319431C
:10566000C9B2092000F010F922467821032000F089
:1056700023FC002010BD00BF2DE9F041274F82B070
:105680003B78044601330D4616463B70BFF34F8FFF
:105690004FF40062224BC3F88020BFF34F8FBFF35B
:1056A0006F8FBFF34F8FBFF36F8F002201211D4813
:1056B00002F024FE630625D40DF1070824F0400310
:1056C0000122002140468DF807302DF045FA324680
:1056D000002128462DF040FA01221248114602F01E
:1056E0000DFE3B78013BDBB23B701BB94FF400620F
:1056F0000B4B1A6032462946204602B0BDE8F04105
:1057000000F0BCBEFB230DF107080122002140463A
:105710008DF807302DF020FAD0E700BFF9440220C1
:1057200000E100E000080242F0B5264E83B0337875
:10573000044601330D463370BFF34F8F4FF40062C0
:10574000214BC3F88020BFF34F8FBFF36F8FBFF3A0
:105750004F8FBFF36F8F002201211C4802F0CEFD56
:10576000630623D40DF1070744F0400401223846B4
:1057700000218DF807402DF0EFF90DB100232B70BB
:105780000122294600202DF0E7F901220F48114699
:1057900002F0B4FD3378013BDBB233701BB94FF438
:1057A0000062094B1A60002003B0F0BDFB230DF12D
:1057B00007070122002138468DF807302DF0CCF97B
:1057C000D2E700BFF944022000E100E000080242F5
:1057D0000AB9002070472DE9F041284F82B03B788C
:1057E000054601330E4614463B70BFF34F8F4FF40E
:1057F0000062234BC3F88020BFF34F8FBFF36F8F3E
:10580000BFF34F8FBFF36F8F002201211D4802F0BD
:1058100075FD6B0627D40DF1070845F0400340469F
:10582000012200218DF807302DF096F926B122468D
:1058300000213046FBF78EFB2246314600202DF03A
:105840008BF901220F48114602F058FD3B78013BCD
:10585000DBB23B701BB94FF40062094B1A600020A9
:1058600002B0BDE8F081FB230DF107080122002101
:1058700040468DF807302DF06FF9CEE7F94402204D
:1058800000E100E00008024270B5284D82B02B789C
:10589000044601332B708DF80610BFF34F8F4FF481
:1058A0000062234BC3F88020BFF34F8FBFF36F8F8D
:1058B000BFF34F8FBFF36F8F002201211D4802F00D
:1058C0001DFD630627D40DF1070624F040030122D5
:1058D000002130468DF807302DF03EF901220021DD
:1058E0000DF106002DF038F901221248114602F0A0
:1058F00005FD2B78013BDBB22B701BB94FF4006226
:105900000B4B1A60204601220DF1060100F0B6FD96
:10591000002002B070BDFB230DF10706012200211B
:1059200030468DF807302DF017F9CEE7F944022004
:1059300000E100E000080242B1F5007F40D82DE907
:10594000F0410C4682B019B9002002B0BDE8F081E8
:105950001C4F05463B7801333B70BFF34F8F4FF42C
:105960000068194EC6F88080BFF34F8FBFF36F8F6A
:10597000BFF34F8FBFF36F8F00220121134802F056
:10598000BDFC8023012200210DF107008DF80730B6
:105990002DF0E2F82246002128462DF0DDF8012204
:1059A0000A48114602F0AAFC3B78013BDBB23B708F
:1059B000002BC9D1C6F80080002002B0BDE8F081FC
:1059C00007207047F944022000E100E0000802428D
:1059D00009B90020704770B51F4E82B03378054674
:1059E00001330C463370BFF34F8F4FF400621B4BF3
:1059F000C3F88020BFF34F8FBFF36F8FBFF34F8F7C
:105A0000BFF36F8F00220121154802F077FC9F231E
:105A1000012200210DF107008DF807302DF09CF8D0
:105A200025B1224600212846FBF794FA2246294652
:105A300000202DF091F801220948114602F05EFC89
:105A40003378013BDBB233701BB94FF40062034B78
:105A50001A60002002B070BDF944022000E100E0AD
:105A600000080242302940D82DE9F0410C4682B0AE
:105A700019B9002002B0BDE8F0811D4F05463B7802
:105A800001333B70BFF34F8F4FF40068194EC6F8D7
:105A90008080BFF34F8FBFF36F8FBFF34F8FBFF384
:105AA0006F8F00220121144802F028FCA02301225C
:105AB00000210DF107008DF807302DF04DF822463A
:105AC000002128462DF048F801220B48114602F02B
:105AD00015FC3B78013BDBB23B70002BC9D1C6F80B
